S013000073657269616C2D636F6D6D2E73726563B8
S11300000C9434000C9451000C9451000C94510045
S11300100C9451000C9451000C9451000C94510018
S11300200C9451000C9451000C9451000C941F0337
S11300300C9451000C9451000C9451000C945100F8
S11300400C9451000C9451000C9451000C945100E8
S11300500C9451000C9451000C9451000C945100D8
S11300600C9451000C94510011241FBECFEFD8E022
S1130070DEBFCDBF11E0A0E0B1E0E0EFFAE002C0E6
S113008005900D92A830B107D9F711E0A8E0B1E0CE
S113009001C01D92A133B107E1F70E946E030C94D5
S11300A076050C940000EAE7F0E0808180648083A8
S11300B00E946B010E94D2000E94E10008950F93F8
S11300C01F938B019C01689413F836952795179517
S11300D007951694D1F7602F712F822F932F1F91BC
S11300E00F9108950F931F9328988FE19EE4019731
S11300F0F1F700C00000289A90E49A95F1F7289847
S113010080E492E4AFE0B0E004C00197A109B10932
S113011099F11999FACF04C00197A109B10981F1A4
S1130120199BFACF199B14C00097A105B10561F181
S113013040E050E0BA0105C084179507A607B70749
S113014039F14F5F5F4F6F4F7F4F1999F5CF03C060
S113015040E050E0BA01CB01BA012CE030E040E0CD
S113016050E00E945705605F7F4F8F4F9F4F0E9462
S11301705F008B019C010FC000E010E098010BC0F0
S113018000E010E0980107C000E010E0980103C00F
S113019000E010E09801602F712F822F932F1F91A0
S11301A00F9108950E9472000E941D042AE138EA0A
S11301B04CE85CE30E94AB040E94F10360930801E5
S11301C008958091090190913001891710F05A9B8C
S11301D004C090910B01913051F55C9881E08093BB
S11301E00B0190910801809106019817B8F45B9A6D
S11301F08FEF99E6A8E181509040A040E1F700C05C
S113020000005B988FEF99E6A8E181509040A040F0
S1130210E1F700C000000E94D20008958917B0F5EC
S11302200E94D2005B985A9A10920B010895209173
S11302302F01281710F05C9B02C0923039F55A98B0
S113024082E080930B01809108018630B8F05B9ABC
S11302508FEF99E6A8E181509040A040E1F700C0FB
S113026000005B988FEF99E6A8E181509040A04090
S1130270E1F700C000000E94D2000895853030F4F8
S11302800E94D2005B985C9A10920B010895682F2B
S113029070E080E090E00E941F0423E333E343E234
S11302A050E40E94AB040E940E050E94F103862FC5
S11302B00895682F70E080E090E00E941F0423E31B
S11302C033E343E25FE30E94AB040E940E050E9405
S11302D0F103862F0895E9E7F0E080818093090116
S11302E080810E94590180930A010895682F70E06B
S11302F080E090E00E941D040E940E050E94F1031C
S1130300862F0895682F70E080E090E00E941D041D
S113031020E030E04FE753E40E94890320E030E01E
S113032048EC52E40E94AB040E940E050E94F103C3
S1130330862F089589E10E94760180932F018AE136
S11303400E9476018093300185E680937C0087E8E3
S113035080937A0080E280937E0081E084B98CE10E
S11303608AB95C9A0895CF93DF935A9925C05C9813
S1130370C5E0D0E05B9A8FEF99E6A8E18150904008
S1130380A040E1F700C000005B988FEF99E6A8E178
S113039081509040A040E1F700C000000E94D200CC
S11303A0219741F75A9A8FEF93E2A4EF815090403E
S11303B0A040E1F700C00000DF91CF910895CF93F2
S11303C0DF935C9925C05A98C5E0D0E05B9A8FEF23
S11303D099E6A8E181509040A040E1F700C00000F8
S11303E05B988FEF99E6A8E181509040A040E1F737
S11303F000C000000E94D200219741F75C9A8FEF61
S113040093E2A4EF81509040A040E1F700C00000C7
S1130410DF91CF910895E0ECF0E0908195FFFDCF5E
S11304208093C6000895E0ECF0E080818823ECF727
S11304308091C600089581E00E940B020895809186
S11304400A010E940B0208950E94DF0181E00E94CC
S11304500B0208950E94B30181E00E940B020895EB
S1130460CF930E941302C82F0E94760180932F011C
S11304708C2F0E940B02CF910895CF930E941302F8
S1130480C82F0E947601809330018C2F0E940B02AA
S1130490CF9108950E941302809306010E940B02DB
S11304A008958091C000882334F58091C60083307C
S11304B0B9F0843028F4813069F0823070F407C0D8
S11304C08530A1F0853078F08630A9F412C00E94FE
S11304D01B0208950E941F0208950E942402089599
S11304E00E942A0208950E94300208950E943D024B
S11304F008950E944A0208950F931F93CF93DF93A8
S11305008C01EB01DA0180910C0190910D010097AF
S1130510B1F0E3E1F1E021E030E0422FB901808164
S11305209181009741F02F5F3F4F37962630310578
S1130530A1F7842F01C0822F853021F417C060E019
S113054070E040E0CB01880F991F880F991F880F36
S1130550991F861B970BFC01E45FFE4F11830083F8
S1130560D383C283B583A4831682842FDF91CF9172
S11305701F910F91089590E0FC01EE0FFF1FEE0F05
S1130580FF1FEE0FFF1FE81BF90BE45FFE4F118204
S113059010821382128215821482168280E00895DA
S11305A0CF92DF92EF92FF921F93CF93DF93C2E13A
S11305B0D1E00F2EFAEFEF2EFFEFFF2EF02DEC0E11
S11305C0FD1E10E08881882391F0D701ED91FC9104
S11305D01197309761F00995888181508883F701DC
S11305E084819581009719F4812F0E94BB021F5FBB
S11305F0279687E090E0E80EF91E153019F7DF9191
S1130600CF911F91FF90EF90DF90CF900895CF93FB
S1130610C0E08C2F0E94BB02CF5FC530D1F781E7C9
S113062092E090938900809388008CE0809381000D
S113063082E080936F00CF910895789408951F927B
S11306400F920FB60F9211242F933F938F939F9382
S1130650AF93BF93CF93DF93EF93FF93ECE0F1E07D
S1130660DF0116969F012D5D3F4F80819181009798
S113067091F082819381009759F48C918F5F8C93D0
S113068084819581009739F001979383828303C015
S113069001979383828337961796E217F30729F716
S11306A0FF91EF91DF91CF91BF91AF919F918F9186
S11306B03F912F910F900FBE0F901F90189587E6D2
S11306C090E09093C5008093C40088E18093C100BA
S11306D01092C00086E08093C20008950E94070330
S11306E00E941D030E945F030E949A0181E592E02B
S11306F060E070E041E050E00E947C0283E590E01D
S11307006AE070E041E050E00E947C020E94D00266
S1130710FDCF0CD0E6C0DED040F0D5D030F021F4CF
S11307205F3F19F0C7C0511110C1CAC0EBD098F394
S11307309923C9F35523B1F3951B550BBB27AA275E
S113074062177307840738F09F5F5F4F220F331FD0
S1130750441FAA1FA9F333D00E2E3AF0E0E830D09C
S113076091505040E695001CCAF729D0FE2F27D09F
S1130770660F771F881FBB1F261737074807AB076D
S1130780B0E809F0BB0B802DBF01FF2793585F4FE2
S11307902AF09E3F510568F08DC0D7C05F3FECF34F
S11307A0983EDCF3869577956795B795F7959F5FA7
S11307B0C9F7880F911D9695879597F90895E1E0FB
S11307C0660F771F881FBB1F621773078407BA075A
S11307D020F0621B730B840BBA0BEE1F88F7E095B5
S11307E0089598D088F09F5790F0B92F9927B75162
S11307F0A0F0D1F0660F771F881F991F1AF0BA95E1
S1130800C9F712C0B13081F09FD0B1E008959CC007
S1130810672F782F8827B85F39F0B93FCCF38695D6
S113082077956795B395D9F73EF490958095709533
S113083061957F4F8F4F9F4F0895E89409C097FBB0
S11308403EF490958095709561957F4F8F4F9F4FA3
S11308509923A9F0F92F96E9BB279395F6958795E7
S113086077956795B795F111F8CFFAF4BB0F11F4AA
S113087060FF1BC06F5F7F4F8F4F9F4F16C0882351
S113088011F096E911C0772321F09EE8872F762F87
S113089005C0662371F096E8862F70E060E02AF0C8
S11308A09A95660F771F881FDAF7880F96958795B4
S11308B097F9089597F99F6780E870E060E00895DC
S11308C09FEF80EC089500240A9416161706180664
S11308D00906089500240A94121613061406050640
S11308E00895092E0394000C11F4882352F0BB0FD1
S11308F040F4BF2B11F460FF04C06F5F7F4F8F4F34
S11309009F4F089557FD9058440F551F59F05F3F6E
S113091071F04795880F97FB991F61F09F3F79F01D
S113092087950895121613061406551FF2CF46959F
S1130930F1DF08C0161617061806991FF1CF869521
S11309407105610508940895E894BB276627772705
S1130950CB0197F908950BD0C4CFB5DF28F0BADFE7
S113096018F0952309F0A6CFABCF1124EECFCADF40
S1130970A0F3959FD1F3950F50E0551F629FF001AE
S1130980729FBB27F00DB11D639FAA27F00DB11D07
S1130990AA1F649F6627B00DA11D661F829F222790
S11309A0B00DA11D621F739FB00DA11D621F839F17
S11309B0A00D611D221F749F3327A00D611D231FED
S11309C0849F600D211D822F762F6A2F11249F573B
S11309D050408AF0E1F088234AF0EE0FFF1FBB1F5E
S11309E0661F771F881F91505040A9F79E3F5105FD
S11309F070F060CFAACF5F3FECF3983EDCF38695AE
S1130A0077956795B795F795E7959F5FC1F7FE2BA7
S1130A10880F911D9695879597F908957BDFE0F0EF
S1130A209E37D8F09639B8F49E3848F4672F782F5B
S1130A308827985FF9CF869577956795939595392B
S1130A40D0F3B62FB1706B0F711D811D20F4879503
S1130A5077956795939502C01CC077CF882371F46E
S1130A60772321F09850872B762F07C0662311F443
S1130A7099270DC09051862B70E060E02AF09A957A
S1130A80660F771F881FDAF7880F9695879597F971
S1130A9008959F3F31F0915020F48795779567959D
S1130AA0B795880F911D9695879597F90895629F3C
S1130AB0D001739FF001829FE00DF11D649FE00D52
S1130AC0F11D929FF00D839FF00D749FF00D659FB3
S1130AD0F00D9927729FB00DE11DF91F639FB00DB2
S1130AE0E11DF91FBD01CF0111240895F894FFCF32
S10B0AF00100040302051401D6
S9030000FC
